:100000000200BAC000788500D8FDD00022C000C030
:100010000179287868D8FED9FADAF6D001D0002222
:10002000D294120003C29422D293020068C29302B7
:1000300000684164656C61205869203A29003737AF
:1000400031383733323600E4936006120028A3803B
:10005000F622748012002D90003212004774C012F4
:10006000002D90003E120047A2E79283A2E6928202
:10007000A2E59281A2E49280120020A2E39283A2E0
:10008000E29282A2E19281A2E0928012002022C23A
:10009000947A2812000D743312002D743312002D3F
:1000A000743212002D742812002D740C12002D745D
:1000B0000112002D7A0212000D2275817F75B100A8
:1000C00075B20075B30075B40075AD0075AD001262
:1000D000008F748012002D90003212004774C012FD
:1000E000002D90003E1200471200EB741812002DF4
:0C00F000741012002D12000D80F180FE33
:00000001FF
