:0300000002010CEE
:0100030032CA
:03000B000200FFF1
:0100130032BA
:01001B0032B2
:0100230032AA
:10002400C000788500D8FDD00022C000C001792826
:100034007868D8FED9FADAF6D001D00022D2941228
:100044000024C29422A2E79283A2E69282A2E592BD
:1000540081A2E49280120041120024A2E39283A2BE
:10006400E29282A2E19281A2E0928012004122D225
:1000740093020049C293020049C294C0027A281232
:10008400002ED00274331200787433120078743264
:100094001200787428120078740C1200787401121B
:1000A4000078C0027A0212002ED00222E493600685
:1000B400120073A380F62244404480020078C0E01A
:1000C400E8C4540F4430120073E8540F4430120053
:1000D40073D0E02220203E4D75736963205465730C
:1000E400743C202000438E08E58954F04401F589CE
:1000F400758C7C758ABDD2A9D28C22C28C85338C36
:1001040085328AD28CB2973275817F75B10075B20F
:100114000075B30075B40075AD0075AD001200E94B
:10012400D2AF12007DC083C082C0E09000D812001C
:10013400B0D0E0D082D08375337C7532BDC0027AF2
:100144007812002ED00275336C7532A1C0027A7811
:1001540012002ED0027533637532C0C0027A781251
:10016400002ED00275336C7532A1C0027A78120069
:100174002ED002753384753205C0027AF012002E37
:10018400D002C0027AF012002ED002753384753288
:1001940005C0027A7812002ED002753384753205B8
:1001A400C0027A7812002ED0027533BE75325FC059
:1001B400027A7812002ED0027533C2753212C00250
:1001C4007A7812002ED0027533CE7532D7C0027AF7
:1001D400F012002ED002C0027AF012002ED0027566
:1001E40033D1753296C0027A7812002ED00275335C
:1001F400CE7532D7C0027A7812002ED0027533CB76
:100204007532EBC0027A7812002ED0027533CE75A7
:1002140032D7C0027A7812002ED0027533DF7532DD
:1002240030C0027A7812002ED0027533DB75322981
:10023400C0027A7812002ED0027533D87532F7C016
:10024400027A7812002ED0027533DB753229C0028F
:100254007A7812002ED0027533DF753230C0027AFC
:100264007812002ED0027533DB753229C0027A78F9
:1002740012002ED0027533D87532F7C0027A781284
:10028400002ED0027533DB753229C0027A78120051
:100294002ED0027533E1753205C0027AF012002EB9
:1002A400D002C0027AF012002ED0027533DB753210
:1002B40029C0027AF012002ED0027533E17532059E
:1002C400C0027AF012002ED0027533DF753230C0CE
:1002D400027AF012002ED0027533DB753229C00287
:1002E4007AF012002ED0027533D6753229C0027A04
:1002F400F012002ED0027533DB753229C0027AF079
:1003040012002ED0027533DF753230C0027AF0123B
:10031400002ED0027533DB753229C0027AF0120048
:100324002ED0027533D6753229C0027AF012002E0F
:10033400D0027533DB753229C0027AF012002ED058
:10034400027533DF753230C0027AF012002ED0020B
:100354007533DB753229C0027AF012002ED0027593
:1003640033D6753229C0027AF012002ED0027533CA
:10037400D4753230C0027AF012002ED0027533CE1A
:100384007532D7C0027AF012002ED002C0027AF081
:0903940012002ED002C28C80FC84
:00000001FF
