:0300000002099B57
:0100030032CA
:03000B000204E408
:0100130032BA
:01001B0032B2
:0100230032AA
:10002B00020514546F3D7878784320546A3D203292
:10003B0032432000737878782C787820727878782F
:10004B002C7878200052616D70546F536F616B2068
:10005B00733D00536F616B20202020202020733DC7
:10006B000052616D70546F5065616B20733D00528F
:10007B0065666C6F772020202020733D00436F6FE7
:10008B006C696E6720202020733D002020202020EB
:10009B00202020202020202020202000484F54000A
:1000AB00C000788500D8FDD00022C000C00179289F
:1000BB007868D8FED9FADAF6D001D00022D29412A1
:1000CB0000ABC29422A2E79283A2E69282A2E592AF
:1000DB0081A2E492801200C81200ABA2E39283A229
:1000EB00E29282A2E19281A2E092801200C822D217
:1000FB00930200D0C2930200D0C294C0027A28129D
:10010B0000B5D00274331200FF74331200FF743247
:10011B001200FF74281200FF740C1200FF740112FE
:10012B0000FFC0027A021200B5D00222E4936006EF
:10013B001200FAA380F622444044800200FFC0E084
:10014B00E8C4540F44301200FAE8540F4430120044
:10015B00FAD0E0223099FDC299F59922C0E0E8C4AB
:10016B00540F443012015FE8540F443012015FD03A
:02017B00E02280
:10017D00C0E0C0D0C000C001C002E4F538F539F5CB
:10018D003AF53BF53C7A20E533A2E779047830E681
:10019D0033F608D9FA79057838E636D4F608D9F960
:1001AD00DAE5D002D001D000D0D0D0E022C0E0C03E
:1001BD00D0C000C001C002E4F538F539F53AF53B81
:1001CD00F53C7A20E533A2E779047830E633F6087A
:1001DD00D9FA79057838C0D0E6243320E70224D047
:1001ED0020E30224FDD0D033F608D9EADAD6D002C6
:1001FD00D001D000D0D0D0E022C0E0C0D0C000C02F
:10020D0001C0027A207905C3783CE613C0D030E7EF
:10021D000224D030E30224FDF618D0D0D9EC7904B5
:10022D007833E613F618D9FADADBD002D001D00014
:10023D00D0D0D0E022C0E0C0D0E5302534F530E597
:10024D00313535F531E5323536F532E5333537F5BE
:10025D0033D0D0D0E022C0E0C0D0C3E5309534F526
:10026D0030E5319535F531E5329536F532E5339595
:10027D0037F533D0D0D0E022C0E0C0D0C3E5309503
:10028D0034E5319535E5329536E53395379200D025
:10029D00D0D0E022C0E0C0D0C3E5349530E535952F
:1002AD0031E5369532E53795339200D0D0D0E02246
:1002BD00C0E0C0D0C200C3E53495307014E535956B
:1002CD0031700EE53695327008E53795337002D2F0
:1002DD0000D0D0D0E0221202BD2000030202A122E4
:1002ED001202BD20000302028522C0E0C0F0C0D082
:1002FD00C000C001C002C003E5308534F0A4F8A9E8
:10030D00F0E5318534F0A429F9E435F0FAE53085CE
:10031D0035F0A429F9E5F03AFAE433FBE5328534FA
:10032D00F0A42AFAE5F03BFBE5318535F0A42AFA75
:10033D00E5F03BFBE5308536F0A42AFAE5F03BFB12
:10034D00E5338534F0A42BFBE5328535F0A42BFB8A
:10035D00E5318536F0A42BFBE5308537F0A42BFB7A
:10036D008B338A3289318830D003D002D001D0004E
:10037D00D0D0D0F0D0E022C0E0C0D0C000C001C0CD
:10038D0002C003C0047C20E4F8F9FAFBC3E5303366
:10039D00F530E53133F531E53233F532E53333F50B
:1003AD0033E833F8E933F9EA33FAEB33FBC3E89575
:1003BD0034E99535EA9536EB95374013E89534F8E1
:1003CD00E99535F9EA9536FAEB9537FB433001DCC3
:1003DD00BBD004D003D002D001D000D0D0D0E022C9
:1003ED0074401200FF74091200FA74001200FA74BE
:1003FD00141200FA74061200FA740F1200FA741B2C
:10040D001200FA741111FA740E1200FA22744812C5
:10041D0000FF74001200FA740F1200FA7409120032
:10042D00FA74091200FA741B1200FA741B1200FA06
:10043D00740011FA74001200FA2274501200FF7445
:10044D00041200FA74061200FA74051200FA74040C
:10045D001200FA740C1200FA74141200FA740811D6
:10046D00FA74001200FA2274581200FF7400120080
:10047D00FA740A1200FA74151200FA74111200FAC5
:10048D0074111200FA740A1200FA740411FA74004D
:10049D001200FA2274601200FF74001200FA740444
:1004AD001200FA740E1200FA740E1200FA740E1283
:1004BD0000FA741F1200FA740011FA74041200FA93
:1004CD0022438E08E58954F04401F589758CF07549
:1004DD008A2CD2A9D28C22C28C854D8C854C8AD285
:1004ED008CB2923275C80075CDD775CC7975C9A00F
:1004FD0075CBD775CA79E4F53DF53E754700754660
:10050D0000439B80D2CA22C2CFB284C0D0C0E005C6
:10051D0046C3E5479546B39290E546B464077546E4
:10052D0000053FD201D0E0D0D03275AC0075AD00E2
:10053D0075B30075B40075B10075B200438E1043EC
:10054D00878075985253C4DF53890F438920758D69
:10055D00F7D28E438E085389F043890143B38253FA
:10056D00B47D53E8F043E80775F60043F68143E1A7
:10057D000122D202D203D204D205D206D295C28074
:10058D00C281C282C283C29320954DC0027A3212BB
:10059D0000B5D002209541D280D281D282D283D2B1
:1005AD0093C293A2959206D293300636C280A2953D
:1005BD009205D280300537C281A2959204D2813046
:1005CD000438C282A2959203D282300339C283A22B
:1005DD00959202D28330023AC0027A191200B5D038
:1005ED0002220545E545B4F0EF75450080EA054466
:1005FD00E544B478E375440080DE0543E543B4F08B
:10060D00D775430080D20542E542B44BCB7542000D
:10061D0080C6B20880C2C0E0740414120144D0E058
:10062D00C000A83B120149D000C000A83A120149F0
:10063D00D000C000A83B120167D000C000A83A123C
:10064D000167D000C000A839120167D000C000A812
:10065D0038120167D000740D12015F740A12015F28
:10066D00C0E0740E14120142D0E0E53F12067D2267
:10067D0075F0648444301200FAE5F075F00A844494
:10068D00301200FAE5F044301200FA22C0E0740294
:10069D0014120142D0E0E54512067DC0E074061447
:1006AD00120142D0E0E54412067DC0E0740A141236
:1006BD000142D0E0E54312067DC0E0740E14120134
:1006CD0042D0E0E54212067D22C2EFD2EE30EFFDC0
:1006DD00E5C3C4C0E0540FF9D0E054F045C2F8882A
:1006ED0030893175320075330075347C7535C475BC
:1006FD0036007537001202F77534FF75350F7536F4
:10070D00007537001203847534E8753503753600AE
:10071D007537001202F775340A7535007536007598
:10072D0037001202F77534D07535527536007537AE
:10073D000012038475342975350075360075370040
:10074D001203847534107535277536007537001210
:10075D0002F775346075355B753603753700120217
:10076D00427534A07535257536267537001202E3AE
:10077D0020001A12017D1206232212017DC0E074A1
:10078D000E14120142D0E0E53F12067D22C0E07446
:10079D000414120144D0E0C083C082C0E09000A7D1
:1007AD00120137D0E0D082D0831203ED748612008F
:1007BD00FF74001200FA80C2C2EFD2EE30EFFDE5F9
:1007CD00C3C4C0E0540FF9D0E054F045C2F88830EE
:1007DD00893175320075330075347C7535C47536C5
:1007ED00007537001202F77534FF75350F75360039
:1007FD007537001203847534E87535037536007549
:10080D0037001202F775340A7535007536007537E5
:10081D00001202F77534D0753552753600753700F4
:10082D00120384753429753500753600753700123D
:10083D00038475341075352775360075370012022F
:10084D00F775346075355B753603753700120242E6
:10085D0012017D12086422C0E0740414120144D008
:10086D00E0C000A83B120149D000C000A83A120117
:10087D0049D00022853A48853B4985483885493914
:10088D00753A00753B00753C0012020685303485C3
:10089D003135853236853337F53075310075320097
:1008AD0075330012017D1202ED22D206D295C2835C
:1008BD00209519C0027A321200B5D00220950DD2C2
:1008CD0083C283A2959202D28330020122B20880A4
:1008DD00FB12047474811200FF74031200FA1204E7
:1008ED004774C41200FF74021200FA1204A1748737
:1008FD001200FF74041200FA12041A74CA1200FFD7
:10090D0074011200FA120474748D1200FF74031234
:10091D0000FA3212047474C01200FF74031200FA4C
:10092D0012044774831200FF74021200FA1204A11C
:10093D0074C71200FF74041200FA12041A748B1299
:10094D0000FF74011200FA12047474CE1200FF74C9
:10095D00031200FA32C0E0740114120144D0E0C059
:10096D0083C082C0E0900096120137D0E0D082D0D3
:10097D0083C0E0740114120142D0E0C083C082C074
:10098D00E0900096120137D0E0D082D0833275818D
:10099D007F75B10075B20075B30075B40075AD000B
:1009AD0075AD001205371201041204CE1204F1D2F6
:1009BD00AFC0E0740114120144D0E0C083C082C006
:1009CD00E090002E120137D0E0D082D083C0E074C9
:1009DD000114120142D0E0C083C082C0E090003FFC
:1009ED00120137D0E0D082D083754B00753F007572
:1009FD00458C75443C7543E675421ED2CAC208C289
:100A0D008CE54BB4005175470012057F12069920F5
:100A1D00080B30016CC2011207C5020A0E753F00AA
:100A2D00754B01C0E0740114120142D0E0C083C0C7
:100A3D0082C0E0900050120137D0E0D082D083D236
:100A4D008CC0027AFA1200B5D002C0027AFA1200F6
:100A5D00B5D002C28C80C3B4014D754764C3120872
:100A6D00B7300834743C953F401AC3300113C201AE
:100A7D001206D6E545120881300006753F00754B0C
:100A8D0002020A0E74323001F81206D612088120C5
:100A9D0000D8754B0002099BC2CA300805D2CA02A4
:100AAD000A0E1208B780F1B4023D754714C0E07408
:100ABD000114120142D0E0C083C082C0E090005EFC
:100ACD00120137D0E0D082D083C31208B73008C8E6
:100ADD00300111C2011206D6E544953F5006753F0F
:100AED0000754B03020A0EB40342754764C0E074EF
:100AFD000114120142D0E0C083C082C0E090006CAE
:100B0D00120137D0E0D082D083C31208B7300888E5
:100B1D00300113C2011206D6E543120881300006DA
:100B2D00753F00754B04020A0E020AA5B4043D750B
:100B3D004714C0E0740114120142D0E0C083C0829A
:100B4D00C0E090007A120137D0E0D082D083C3127A
:100B5D0008B73008D4300111C2011206D6E542950E
:100B6D003F5006753F00754B05020A0EB4054275E0
:100B7D004700C0E0740114120142D0E0C083C0826E
:100B8D00C0E0900088120137D0E0D082D083C3122C
:100B9D0008B7300894300113C2011206D6743C1206
:100BAD000881200006753F00754B06020A0E020AE9
:100BBD000EB406FAC2CAD28CD2A91208DE754D7CCB
:100BCD00754CBDC0027A781200B5D002754D6C75AA
:100BDD004CA1C0027A781200B5D002754D63754CE8
:100BED00C0C0027A781200B5D002754D6C754CA15B
:100BFD00C0027A781200B5D002120962120920756E
:100C0D004D84754C05C0027AF01200B5D002C002B9
:100C1D007AF01200B5D0021209621208DE754D8409
:100C2D00754C05C0027A781200B5D002754D8475E9
:100C3D004C05C0027A781200B5D002754DBE754CC8
:100C4D005FC0027A781200B5D002754DC2754C1294
:100C5D00C0027A781200B5D002120962120920750D
:100C6D004DCE754CD7C0027AF01200B5D002C0023D
:100C7D007AF01200B5D0021209621208DE754DD15C
:100C8D00754C96C0027A781200B5D002754DCE75AE
:100C9D004CD7C0027A781200B5D002754DCB754C89
:100CAD00EBC0027A781200B5D002754DCE754CD7D7
:100CBD00C0027A781200B5D00212096212092075AD
:100CCD004DDF754C30C0027A781200B5D002754DEB
:100CDD00DB754C29C0027A781200B5D002754DD85B
:100CED00754CF7C0027A781200B5D002754DDB75E0
:100CFD004C29C0027A781200B5D00212096212088E
:100D0D00DE754DDF754C30C0027A781200B5D00219
:100D1D00754DDB754C29C0027A781200B5D002757D
:100D2D004DD8754CF7C0027A781200B5D002754DCA
:100D3D00DB754C29C0027A781200B5D00212096217
:100D4D00120920754DE1754C05C0027AF01200B5FF
:100D5D00D002C0027AF01200B5D002120962120858
:100D6D00DE754DDB754C29C0027AF01200B5D0024C
:100D7D00754DE1754C05C0027AF01200B5D0021226
:100D8D000962120920754DDF754C30C0027AF012E0
:100D9D0000B5D002754DDB754C29C0027AF01200FA
:100DAD00B5D0021209621208DE754DD6754C29C0F8
:100DBD00027AF01200B5D002754DDB754C29C002D8
:100DCD007AF01200B5D002120962120920754DDFBA
:100DDD00754C30C0027AF01200B5D002754DDB753E
:100DED004C29C0027AF01200B5D002120962120825
:100DFD00DE754DD6754C29C0027AF01200B5D002C1
:100E0D00754DDB754C29C0027AF01200B5D0021277
:100E1D000962120920754DDF754C30C0027AF0124F
:100E2D0000B5D002754DDB754C29C0027AF0120069
:100E3D00B5D0021209621208DE754DD6754C29C067
:100E4D00027AF01200B5D002754DD4754C30C00247
:100E5D007AF01200B5D002120962120920754DCE3A
:100E6D00754CD7C0027AF01200B5D002C0027AF0EC
:0E0E7D001200B5D0021209621208DE02099BB3
:00000001FF
