:03000000020629CC
:0100030032CA
:03000B000204DA12
:0100130032BA
:01001B0032B2
:1000230032546F3D7878784320546A3D203232430E
:100033002000737878782C787820727878782C7808
:1000430078200052616D70546F536F616B20733D64
:1000530000536F616B20202020202020733D00522D
:10006300616D70546F5065616B20733D005265661E
:100073006C6F772020202020733D00436F6F6C69E5
:100083006E6720202020733D002020202020202088
:0E00930020202020202020202000484F540054
:1000A100C000788500D8FDD00022C000C0017928A9
:1000B1007868D8FED9FADAF6D001D00022D29412AB
:1000C10000A1C29422A2E79283A2E69282A2E592C3
:1000D10081A2E492801200BE1200A1A2E39283A247
:1000E100E29282A2E19281A2E092801200BE22D22B
:1000F100930200C6C2930200C6C294C0027A2812BB
:1001010000ABD00274331200F574331200F574326F
:100111001200F574281200F5740C1200F574011226
:1001210000F5C0027A021200ABD00222E49360060D
:100131001200F0A380F622444044800200F5C0E0A2
:10014100E8C4540F44301200F0E8540F4430120058
:10015100F0D0E0223099FDC299F59922C0E0E8C4BF
:10016100540F4430120155E8540F4430120155D058
:02017100E0228A
:10017300C0E0C0D0C000C001C002E4F538F539F5D5
:100183003AF53BF53C7A20E533A2E779047830E68B
:1001930033F608D9FA79057838E636D4F608D9F96A
:1001A300DAE5D002D001D000D0D0D0E022C0E0C048
:1001B300D0C000C001C002E4F538F539F53AF53B8B
:1001C300F53C7A20E533A2E779047830E633F60884
:1001D300D9FA79057838C0D0E6243320E70224D051
:1001E30020E30224FDD0D033F608D9EADAD6D002D0
:1001F300D001D000D0D0D0E022C0E0C0D0C000C039
:1002030001C0027A207905C3783CE613C0D030E7F9
:100213000224D030E30224FDF618D0D0D9EC7904BF
:100223007833E613F618D9FADADBD002D001D0001E
:10023300D0D0D0E022C0E0C0D0E5302534F530E5A1
:10024300313535F531E5323536F532E5333537F5C8
:1002530033D0D0D0E022C0E0C0D0C3E5309534F530
:1002630030E5319535F531E5329536F532E533959F
:1002730037F533D0D0D0E022C0E0C0D0C3E530950D
:1002830034E5319535E5329536E53395379200D02F
:10029300D0D0E022C0E0C0D0C3E5349530E5359539
:1002A30031E5369532E53795339200D0D0D0E02250
:1002B300C0E0C0D0C200C3E53495307014E5359575
:1002C30031700EE53695327008E53795337002D2FA
:1002D30000D0D0D0E0221202B32000030202972202
:1002E3001202B320000302027B22C0E0C0F0C0D0A0
:1002F300C000C001C002C003E5308534F0A4F8A9F2
:10030300F0E5318534F0A429F9E435F0FAE53085D8
:1003130035F0A429F9E5F03AFAE433FBE532853404
:10032300F0A42AFAE5F03BFBE5318535F0A42AFA7F
:10033300E5F03BFBE5308536F0A42AFAE5F03BFB1C
:10034300E5338534F0A42BFBE5328535F0A42BFB94
:10035300E5318536F0A42BFBE5308537F0A42BFB84
:100363008B338A3289318830D003D002D001D00058
:10037300D0D0D0F0D0E022C0E0C0D0C000C001C0D7
:1003830002C003C0047C20E4F8F9FAFBC3E5303370
:10039300F530E53133F531E53233F532E53333F515
:1003A30033E833F8E933F9EA33FAEB33FBC3E8957F
:1003B30034E99535EA9536EB95374013E89534F8EB
:1003C300E99535F9EA9536FAEB9537FB433001DCCD
:1003D300BBD004D003D002D001D000D0D0D0E022D3
:1003E30074401200F574091200F074001200F074E6
:1003F300141200F074061200F0740F1200F0741B54
:100403001200F0741111F0740E1200F022744812ED
:1004130000F574001200F0740F1200F0740912005A
:10042300F074091200F0741B1200F0741B1200F038
:10043300740011F074001200F02274501200F5746D
:10044300041200F074061200F074051200F0740434
:100453001200F0740C1200F074141200F0740811FE
:10046300F074001200F02274581200F574001200A8
:10047300F0740A1200F074151200F074111200F0F7
:1004830074111200F0740A1200F0740411F0740075
:100493001200F02274601200F574001200F074046C
:1004A3001200F0740E1200F0740E1200F0740E12AB
:1004B30000F0741F1200F0740011F074041200F0C5
:1004C30022438E08E58954F04401F589758CF07553
:1004D3008A2CD2A9D28C22C28C854D8C854C8AD28F
:1004E3008CB2973275C80075CDD775CC7975C9A014
:1004F30075CBD775CA79E4F53DF53E754700439B47
:1005030080D2CA22C2CFB284C0D0C0E00546C3E5C0
:10051300479546B39290E546B46407754600053F98
:10052300D201D0E0D0D03275AC0075AD0075B30008
:1005330075B40075B10075B200438E1043878075A2
:10054300985253C4DF53890F438920758D70D28E1F
:10055300438E085389F043890153E8F043E8077554
:10056300F60043F68143E1012212046A748112000A
:10057300F574031200F012043D74C41200F5740202
:100583001200F012049774871200F574041200F03D
:1005930012041074CA1200F574011200F012046AF6
:1005A300748D1200F574031200F03212046A74C0E1
:1005B3001200F574031200F012043D74831200F567
:1005C30074021200F012049774C71200F574041237
:1005D30000F0120410748B1200F574011200F01273
:1005E300046A74CE1200F574031200F032C0E07492
:1005F300011412013AD0E0C083C082C0E090008CA5
:1006030012012DD0E0D082D083C0E0740114120116
:1006130038D0E0C083C082C0E090008C12012DD09E
:10062300E0D082D0833275817F75B10075B20075D9
:10063300B30075B40075AD0075AD0012052A120044
:10064300FA1204C41204E7D2AF754B00753F00756C
:10065300458C75443C7543E675421E753800C2CA25
:10066300D2A912056C754D7C754CBDC0027A781207
:1006730000ABD002754D6C754CA1C0027A781200A4
:10068300ABD002754D63754CC0C0027A781200ABD3
:10069300D002754D6C754CA1C0027A781200ABD0B4
:1006A300021205F01205AE754D84754C05C0027A31
:1006B300F01200ABD002C0027AF01200ABD00212EB
:1006C30005F012056C754D84754C05C0027A7812DD
:1006D30000ABD002754D84754C05C0027A781200C8
:1006E300ABD002754DBE754C5FC0027A781200AB79
:1006F300D002754DC2754C12C0027A781200ABD08D
:10070300021205F01205AE754DCE754CD7C0027AB4
:10071300F01200ABD002C0027AF01200ABD002128A
:1007230005F012056C754DD1754C96C0027A78129E
:1007330000ABD002754DCE754CD7C0027A7812004B
:10074300ABD002754DCB754CEBC0027A781200AB7F
:10075300D002754DCE754CD7C0027A781200ABD05B
:10076300021205F01205AE754DDF754C30C0027AEA
:10077300781200ABD002754DDB754C29C0027A7834
:100783001200ABD002754DD8754CF7C0027A7812BF
:1007930000ABD002754DDB754C29C0027A7812008C
:1007A300ABD0021205F012056C754DDF754C30C0ED
:1007B300027A781200ABD002754DDB754C29C0026A
:1007C3007A781200ABD002754DD8754CF7C0027A17
:1007D300781200ABD002754DDB754C29C0027A78D4
:1007E3001200ABD0021205F01205AE754DE1754C47
:1007F30005C0027AF01200ABD002C0027AF01200F8
:10080300ABD0021205F012056C754DDB754C29C097
:10081300027AF01200ABD002754DE1754C05C002AF
:100823007AF01200ABD0021205F01205AE754DDF5F
:10083300754C30C0027AF01200ABD002754DDB75F7
:100843004C29C0027AF01200ABD0021205F0120557
:100853006C754DD6754C29C0027AF01200ABD002EC
:10086300754DDB754C29C0027AF01200ABD0021231
:1008730005F01205AE754DDF754C30C0027AF012EB
:1008830000ABD002754DDB754C29C0027AF0120023
:10089300ABD0021205F012056C754DD6754C29C00C
:1008A300027AF01200ABD002754DDB754C29C00201
:1008B3007AF01200ABD0021205F01205AE754DDFCF
:1008C300754C30C0027AF01200ABD002754DDB7567
:1008D3004C29C0027AF01200ABD0021205F01205C7
:1008E3006C754DD6754C29C0027AF01200ABD0025C
:1008F300754DD4754C30C0027AF01200ABD00212A1
:1009030005F01205AE754DCE754CD7C0027AF012C4
:1009130000ABD002C0027AF01200ABD0021205F095
:0309230012056C4E
:00000001FF
