:0300000002099E54
:0100030032CA
:03000B000204E20A
:0100130032BA
:01001B0032B2
:0100230032AA
:10002B0002050F546F3D7878784320546A3D203297
:10003B0032432000737878782C787820727878782F
:10004B002C7878200052616D70546F536F616B2068
:10005B00733D00536F616B20202020202020733DC7
:10006B000052616D70546F5065616B20733D00528F
:10007B0065666C6F772020202020733D00436F6FE7
:10008B006C696E6720202020733D002020202020EB
:10009B00202020202020202020202000484F54000A
:1000AB00C000788500D8FDD00022C000C00179289F
:1000BB007868D8FED9FADAF6D001D00022D29412A1
:1000CB0000ABC29422A2E79283A2E69282A2E592AF
:1000DB0081A2E492801200C81200ABA2E39283A229
:1000EB00E29282A2E19281A2E092801200C822D217
:1000FB00930200D0C2930200D0C294C0027A28129D
:10010B0000B5D00274331200FF74331200FF743247
:10011B001200FF74281200FF740C1200FF740112FE
:10012B0000FFC0027A021200B5D00222E4936006EF
:10013B001200FAA380F622444044800200FFC0E084
:10014B00E8C4540F44301200FAE8540F4430120044
:10015B00FAD0E0223099FDC299F59922C0E0E8C4AB
:10016B00540F443012015FE8540F443012015FD03A
:02017B00E02280
:10017D00C0E0C0D0C000C001C002E4F538F539F5CB
:10018D003AF53BF53C7A20E533A2E779047830E681
:10019D0033F608D9FA79057838E636D4F608D9F960
:1001AD00DAE5D002D001D000D0D0D0E022C0E0C03E
:1001BD00D0C000C001C002E4F538F539F53AF53B81
:1001CD00F53C7A20E533A2E779047830E633F6087A
:1001DD00D9FA79057838C0D0E6243320E70224D047
:1001ED0020E30224FDD0D033F608D9EADAD6D002C6
:1001FD00D001D000D0D0D0E022C0E0C0D0C000C02F
:10020D0001C0027A207905C3783CE613C0D030E7EF
:10021D000224D030E30224FDF618D0D0D9EC7904B5
:10022D007833E613F618D9FADADBD002D001D00014
:10023D00D0D0D0E022C0E0C0D0E5302534F530E597
:10024D00313535F531E5323536F532E5333537F5BE
:10025D0033D0D0D0E022C0E0C0D0C3E5309534F526
:10026D0030E5319535F531E5329536F532E5339595
:10027D0037F533D0D0D0E022C0E0C0D0C3E5309503
:10028D0034E5319535E5329536E53395379200D025
:10029D00D0D0E022C0E0C0D0C3E5349530E535952F
:1002AD0031E5369532E53795339200D0D0D0E02246
:1002BD00C0E0C0D0C200C3E53495307014E535956B
:1002CD0031700EE53695327008E53795337002D2F0
:1002DD0000D0D0D0E0221202BD2000030202A122E4
:1002ED001202BD20000302028522C0E0C0F0C0D082
:1002FD00C000C001C002C003E5308534F0A4F8A9E8
:10030D00F0E5318534F0A429F9E435F0FAE53085CE
:10031D0035F0A429F9E5F03AFAE433FBE5328534FA
:10032D00F0A42AFAE5F03BFBE5318535F0A42AFA75
:10033D00E5F03BFBE5308536F0A42AFAE5F03BFB12
:10034D00E5338534F0A42BFBE5328535F0A42BFB8A
:10035D00E5318536F0A42BFBE5308537F0A42BFB7A
:10036D008B338A3289318830D003D002D001D0004E
:10037D00D0D0D0F0D0E022C0E0C0D0C000C001C0CD
:10038D0002C003C0047C20E4F8F9FAFBC3E5303366
:10039D00F530E53133F531E53233F532E53333F50B
:1003AD0033E833F8E933F9EA33FAEB33FBC3E89575
:1003BD0034E99535EA9536EB95374013E89534F8E1
:1003CD00E99535F9EA9536FAEB9537FB433001DCC3
:1003DD00BBD004D003D002D001D000D0D0D0E022C9
:1003ED0074401200FF74091200FA74001200FA74BE
:1003FD00141200FA74061200FA740F1200FA741B2C
:10040D001200FA741111FA740E1200FA22744812C5
:10041D0000FF74001200FA740F1200FA7409120032
:10042D00FA74091200FA741B1200FA741B1200FA06
:10043D00740011FA74001200FA2274501200FF7445
:10044D00041200FA74061200FA74051200FA74040C
:10045D001200FA740C1200FA74141200FA740811D6
:10046D00FA74001200FA2274581200FF7400120080
:10047D00FA740A1200FA74151200FA74111200FAC5
:10048D0074111200FA740A1200FA740411FA74004D
:10049D001200FA2274601200FF74001200FA740444
:1004AD001200FA740E1200FA740E1200FA740E1283
:1004BD0000FA741F1200FA740011FA74041200FA93
:1004CD0022438E08E58954F04401F589758C7C75BD
:1004DD008ABDD28C22C28C854D8C854C8AD28CB231
:1004ED00973275C80075CDD775CC7975C9A075CB08
:1004FD00D775CA79E4F53DF53E754700439B80D22B
:10050D00CA22C2CFB284C0D0C0E00546C3E547952C
:10051D0046B39290E546B46407754600053FD20197
:10052D00D0E0D0D03275AC0075AD0075B30075B4A8
:10053D000075B10075B200438E10438780759852D7
:10054D0053C4DF53890F438920758D70D28EC28CB1
:10055D00438E085389F043890143B38253B47D53CD
:10056D00E8F043E80775F60043F68143E10122C246
:10057D008CC28D758CBF758A28D28C308DFD221260
:10058D00057CDAFB22D202D203D204D205D206D2E6
:10059D0095C280C281C282C283C2932095497A32AC
:1005AD0012058C209541D280D281D282D283D293F2
:1005BD00C293A2959206D293300632C280A2959232
:1005CD0005D280300533C281A2959204D2813004C8
:1005DD0034C282A2959203D282300335C283A29592
:1005ED009202D2833002367A1412058C220545E52B
:1005FD0045B4F0F375450080EE0544E544B478E765
:10060D0075440080E20543E543B4F0DB754300809B
:10061D00D60542E542B44BCF75420080CAB2088080
:10062D00C6C0E0740414120144D0E0C000A83B120F
:10063D000149D000C000A83A120149D000C000A85D
:10064D003B120167D000C000A83A120167D00074B8
:10065D002E12015FC000A839120167D000740D126F
:10066D00015F740A12015FC0E0740E14120142D0D2
:10067D00E0E53F1206842275F0648444301200FADE
:10068D00E5F075F00A8444301200FAE5F0443012BA
:10069D0000FA22C0E0740214120142D0E0E54512C6
:1006AD000684C0E0740614120142D0E0E54412063F
:1006BD0084C0E0740A14120142D0E0E543120684AE
:1006CD00C0E0740E14120142D0E0E54212068422FD
:1006DD00C2EFD2EE30EFFDE5C3C4C0E0540FF9D048
:1006ED00E054F045C2F88830893175320075330019
:1006FD0075347C7535C47536007537001202F77583
:10070D0034FF75350F753600753700120384753457
:10071D00E87535037536007537001202F775340A22
:10072D007535007536007537001202F77534D075C2
:10073D0035527536007537001203847534297535B9
:10074D000075360075370012038475341075352722
:10075D007536007537001202F775346075355B75A7
:10076D0036037537001202427534A075352575367E
:10077D00267537001202E320001A12017D12062E93
:10078D002212017DC0E0740E14120142D0E0E53F4B
:10079D0012068422C0E0740414120144D0E0C08318
:1007AD00C082C0E09000A7120137D0E0D082D08384
:1007BD001203ED74861200FF74001200FA80C2C29B
:1007CD00EFD2EE30EFFDE5C3C4C0E0540FF9D0E039
:1007DD0054F045C2F8883089317532007533007593
:1007ED00347C7535C47536007537001202F77534D3
:1007FD00FF75350F7536007537001203847534E8B3
:10080D007535037536007537001202F775340A75A4
:10081D0035007536007537001202F77534D0753511
:10082D0052753600753700120384753429753500FD
:10083D0075360075370012038475341075352775BC
:10084D0036007537001202F775346075355B7536F5
:10085D000375370012024212017D12086B22C0E0AF
:10086D00740414120144D0E0C000A83B120149D019
:10087D0000C000A83A120149D00022853A48853BB4
:10088D0049854838854939753A00753B00753C00F6
:10089D00120206853034853135853236853337F58C
:1008AD003075310075320075330012017D1202ED85
:1008BD0022D206D295C2832095157A3212058C204C
:1008CD00950DD283C283A2959202D283300201226A
:1008DD00B20880FB12047474811200FF74031200BD
:1008ED00FA12044774C41200FF74021200FA1204C3
:1008FD00A174871200FF74041200FA12041A74CA4C
:10090D001200FF74011200FA120474748D1200FFAC
:10091D0074031200FA3212047474C01200FF7403CF
:10092D001200FA12044774831200FF74021200FAC7
:10093D001204A174C71200FF74041200FA12041AF3
:10094D00748B1200FF74011200FA12047474CE122B
:10095D0000FF74031200FA32C0E074011412014456
:10096D00D0E0C083C082C0E0900096120137D0E085
:10097D00D082D083C0E0740114120142D0E0C08354
:10098D00C082C0E0900096120137D0E0D082D083B3
:10099D003275817F75B10075B20075B30075B40005
:1009AD0075AD0075AD001205321201041204CE12A0
:1009BD0004EFD2AFC0E0740114120144D0E0C08343
:1009CD00C082C0E090002E120137D0E0D082D083DB
:1009DD00C0E0740114120142D0E0C083C082C0E0B7
:1009ED0090003F120137D0E0D082D083754B007557
:1009FD003F0075458C75443C7543E675421E753850
:100A0D0000C208C207E54BB40036754700120592C7
:100A1D001206A01207CC300824D207753F00754B83
:100A2D0001C0E0740114120142D0E0C083C082C045
:100A3D00E0900050120137D0E0D082D083020A122C
:100A4D00B4014D754764C31208BE300834743C952B
:100A5D003F401AC3300113C2011206DDE5451208ED
:100A6D0088300006753F00754B02020A1274323051
:100A7D0001F81206DD1208882000D8754B00020916
:100A8D009EC2CA300805D2CA020A121208BE80F1EF
:100A9D00B4023D754714C0E0740114120142D0E058
:100AAD00C083C082C0E090005E120137D0E0D082DA
:100ABD00D083C3300117C2011206DD1208BE300803
:100ACD00C0E544953F5006753F00754B03020A1271
:100ADD00B40342754764C0E0740114120142D0E0C2
:100AED00C083C082C0E090006C120137D0E0D0828C
:100AFD00D083C31208BE300888300113C20112061C
:100B0D00DDE543120888300006753F00754B040281
:100B1D000A12020A8EB4043D754714C0E074011424
:100B2D00120142D0E0C083C082C0E090007A120171
:100B3D0037D0E0D082D083C3300117C2011206DD59
:100B4D001208BE3008CCE542953F5006753F007542
:100B5D004B05020A12B40542754700C0E07401143A
:100B6D00120142D0E0C083C082C0E0900088120123
:100B7D0037D0E0D082D083C31208BE300894300144
:100B8D0013C2011206DD743C120888200006753F61
:100B9D0000754B06020A12020A12B406FAD2A91205
:100BAD0008E1754D7C754CBDC0027A781200B5D048
:100BBD0002754D6C754CA1C0027A781200B5D00249
:100BCD00754D63754CC0C0027A781200B5D00275B0
:100BDD004D6C754CA1C0027A781200B5D002120985
:100BED0065120923754D84754C05C0027AF012000B
:100BFD00B5D002C0027AF01200B5D002120965120A
:100C0D0008E1754D84754C05C0027A781200B5D097
:100C1D0002754D84754C05C0027A781200B5D0026C
:100C2D00754DBE754C5FC0027A781200B5D0027555
:100C3D004DC2754C12C0027A781200B5D00212095D
:100C4D0065120923754DCE754CD7C0027AF012008E
:100C5D00B5D002C0027AF01200B5D00212096512A9
:100C6D0008E1754DD1754C96C0027A781200B5D059
:100C7D0002754DCE754CD7C0027A781200B5D002F0
:100C8D00754DCB754CEBC0027A781200B5D002755C
:100C9D004DCE754CD7C0027A781200B5D00212092C
:100CAD0065120923754DDF754C30C0027A7812003C
:100CBD00B5D002754DDB754C29C0027A781200B59E
:100CCD00D002754DD8754CF7C0027A781200B5D0A8
:100CDD0002754DDB754C29C0027A781200B5D00231
:100CED001209651208E1754DDF754C30C0027A7836
:100CFD001200B5D002754DDB754C29C0027A781201
:100D0D0000B5D002754DD8754CF7C0027A78120037
:100D1D00B5D002754DDB754C29C0027A781200B53D
:100D2D00D002120965120923754DE1754C05C002FB
:100D3D007AF01200B5D002C0027AF01200B5D002DE
:100D4D001209651208E1754DDB754C29C0027AF068
:100D5D001200B5D002754DE1754C05C0027AF01246
:100D6D0000B5D002120965120923754DDF754C309F
:100D7D00C0027AF01200B5D002754DDB754C29C05A
:100D8D00027AF01200B5D0021209651208E1754D14
:100D9D00D6754C29C0027AF01200B5D002754DDB24
:100DAD00754C29C0027AF01200B5D00212096512F5
:100DBD000923754DDF754C30C0027AF01200B5D0A5
:100DCD0002754DDB754C29C0027AF01200B5D002C8
:100DDD001209651208E1754DD6754C29C0027AF0DD
:100DED001200B5D002754DDB754C29C0027AF01298
:100DFD0000B5D002120965120923754DDF754C300F
:100E0D00C0027AF01200B5D002754DDB754C29C0C9
:100E1D00027AF01200B5D0021209651208E1754D83
:100E2D00D6754C29C0027AF01200B5D002754DD49A
:100E3D00754C30C0027AF01200B5D002120965125D
:100E4D000923754DCE754CD7C0027AF01200B5D07E
:100E5D0002C0027AF01200B5D0021209651208E143
:030E6D0002099ED9
:00000001FF
