:0300000002099260
:0100030032CA
:03000B000204E408
:0100130032BA
:01001B0032B2
:0100230032AA
:10002B00020514546F3D7878784320546A3D203292
:10003B0032432000737878782C787820727878782F
:10004B002C7878200052616D70546F536F616B2068
:10005B00733D00536F616B20202020202020733DC7
:10006B000052616D70546F5065616B20733D00528F
:10007B0065666C6F772020202020733D00436F6FE7
:10008B006C696E6720202020733D002020202020EB
:10009B00202020202020202020202000484F54000A
:1000AB00C000788500D8FDD00022C000C00179289F
:1000BB007868D8FED9FADAF6D001D00022D29412A1
:1000CB0000ABC29422A2E79283A2E69282A2E592AF
:1000DB0081A2E492801200C81200ABA2E39283A229
:1000EB00E29282A2E19281A2E092801200C822D217
:1000FB00930200D0C2930200D0C294C0027A28129D
:10010B0000B5D00274331200FF74331200FF743247
:10011B001200FF74281200FF740C1200FF740112FE
:10012B0000FFC0027A021200B5D00222E4936006EF
:10013B001200FAA380F622444044800200FFC0E084
:10014B00E8C4540F44301200FAE8540F4430120044
:10015B00FAD0E0223099FDC299F59922C0E0E8C4AB
:10016B00540F443012015FE8540F443012015FD03A
:02017B00E02280
:10017D00C0E0C0D0C000C001C002E4F538F539F5CB
:10018D003AF53BF53C7A20E533A2E779047830E681
:10019D0033F608D9FA79057838E636D4F608D9F960
:1001AD00DAE5D002D001D000D0D0D0E022C0E0C03E
:1001BD00D0C000C001C002E4F538F539F53AF53B81
:1001CD00F53C7A20E533A2E779047830E633F6087A
:1001DD00D9FA79057838C0D0E6243320E70224D047
:1001ED0020E30224FDD0D033F608D9EADAD6D002C6
:1001FD00D001D000D0D0D0E022C0E0C0D0C000C02F
:10020D0001C0027A207905C3783CE613C0D030E7EF
:10021D000224D030E30224FDF618D0D0D9EC7904B5
:10022D007833E613F618D9FADADBD002D001D00014
:10023D00D0D0D0E022C0E0C0D0E5302534F530E597
:10024D00313535F531E5323536F532E5333537F5BE
:10025D0033D0D0D0E022C0E0C0D0C3E5309534F526
:10026D0030E5319535F531E5329536F532E5339595
:10027D0037F533D0D0D0E022C0E0C0D0C3E5309503
:10028D0034E5319535E5329536E53395379200D025
:10029D00D0D0E022C0E0C0D0C3E5349530E535952F
:1002AD0031E5369532E53795339200D0D0D0E02246
:1002BD00C0E0C0D0C200C3E53495307014E535956B
:1002CD0031700EE53695327008E53795337002D2F0
:1002DD0000D0D0D0E0221202BD2000030202A122E4
:1002ED001202BD20000302028522C0E0C0F0C0D082
:1002FD00C000C001C002C003E5308534F0A4F8A9E8
:10030D00F0E5318534F0A429F9E435F0FAE53085CE
:10031D0035F0A429F9E5F03AFAE433FBE5328534FA
:10032D00F0A42AFAE5F03BFBE5318535F0A42AFA75
:10033D00E5F03BFBE5308536F0A42AFAE5F03BFB12
:10034D00E5338534F0A42BFBE5328535F0A42BFB8A
:10035D00E5318536F0A42BFBE5308537F0A42BFB7A
:10036D008B338A3289318830D003D002D001D0004E
:10037D00D0D0D0F0D0E022C0E0C0D0C000C001C0CD
:10038D0002C003C0047C20E4F8F9FAFBC3E5303366
:10039D00F530E53133F531E53233F532E53333F50B
:1003AD0033E833F8E933F9EA33FAEB33FBC3E89575
:1003BD0034E99535EA9536EB95374013E89534F8E1
:1003CD00E99535F9EA9536FAEB9537FB433001DCC3
:1003DD00BBD004D003D002D001D000D0D0D0E022C9
:1003ED0074401200FF74091200FA74001200FA74BE
:1003FD00141200FA74061200FA740F1200FA741B2C
:10040D001200FA741111FA740E1200FA22744812C5
:10041D0000FF74001200FA740F1200FA7409120032
:10042D00FA74091200FA741B1200FA741B1200FA06
:10043D00740011FA74001200FA2274501200FF7445
:10044D00041200FA74061200FA74051200FA74040C
:10045D001200FA740C1200FA74141200FA740811D6
:10046D00FA74001200FA2274581200FF7400120080
:10047D00FA740A1200FA74151200FA74111200FAC5
:10048D0074111200FA740A1200FA740411FA74004D
:10049D001200FA2274601200FF74001200FA740444
:1004AD001200FA740E1200FA740E1200FA740E1283
:1004BD0000FA741F1200FA740011FA74041200FA93
:1004CD0022438E08E58954F04401F589758CF07549
:1004DD008A2CD2A9D28C22C28C854D8C854C8AD285
:1004ED008CB2923275C80075CDD775CC7975C9A00F
:1004FD0075CBD775CA79E4F53DF53E754700754660
:10050D0000439B80D2CA22C2CFB284C0D0C0E005C6
:10051D0046C3E5479546B39290E546B464077546E4
:10052D0000053FD201D0E0D0D03275AC0075AD00E2
:10053D0075B30075B40075B10075B200438E1043EC
:10054D00878075985253C4DF53890F438920758D69
:10055D0070D28E438E085389F043890143B3825381
:10056D00B47D53E8F043E80775F60043F68143E1A7
:10057D000122D202D203D204D205D206D295C28074
:10058D00C281C282C283C29320954DC0027A3212BB
:10059D0000B5D002209541D280D281D282D283D2B1
:1005AD0093C293A2959206D293300636C280A2953D
:1005BD009205D280300537C281A2959204D2813046
:1005CD000438C282A2959203D282300339C283A22B
:1005DD00959202D28330023AC0027A191200B5D038
:1005ED0002220545E545B4F0EF75450080EA054466
:1005FD00E544B478E375440080DE0543E543B4F08B
:10060D00D775430080D20542E542B44BCB7542000D
:10061D0080C6B20880C2C0E0740414120144D0E058
:10062D00C000A83B120149D000C000A83A120149F0
:10063D00D000C000A83B120167D000C000A83A123C
:10064D000167D000C000A839120167D000740D12E7
:10065D00015F740A12015FC0E0740E14120142D0E2
:10066D00E0E53F1206742275F0648444301200FAFE
:10067D00E5F075F00A8444301200FAE5F0443012CA
:10068D0000FA22C0E0740214120142D0E0E54512D6
:10069D000674C0E0740614120142D0E0E54412065F
:1006AD0074C0E0740A14120142D0E0E543120674DE
:1006BD00C0E0740E14120142D0E0E542120674221D
:1006CD00C2EFD2EE30EFFDE5C3C4C0E0540FF9D058
:1006DD00E054F045C2F88830893175320075330029
:1006ED0075347C7535C47536007537001202F77593
:1006FD0034FF75350F753600753700120384753468
:10070D00E87535037536007537001202F775340A32
:10071D007535007536007537001202F77534D075D2
:10072D0035527536007537001203847534297535C9
:10073D000075360075370012038475341075352732
:10074D007536007537001202F775346075355B75B7
:10075D0036037537001202427534A075352575368E
:10076D00267537001202E320001A12017D120623AE
:10077D002212017DC0E0740E14120142D0E0E53F5B
:10078D0012067422C0E0740414120144D0E0C08338
:10079D00C082C0E09000A7120137D0E0D082D08394
:1007AD001203ED74861200FF74001200FA80C2C2AB
:1007BD00EFD2EE30EFFDE5C3C4C0E0540FF9D0E049
:1007CD0054F045C2F88830893175320075330075A3
:1007DD00347C7535C47536007537001202F77534E3
:1007ED00FF75350F7536007537001203847534E8C3
:1007FD007535037536007537001202F775340A75B5
:10080D0035007536007537001202F77534D0753521
:10081D00527536007537001203847534297535000D
:10082D0075360075370012038475341075352775CC
:10083D0036007537001202F775346075355B753605
:10084D000375370012024212017D12085B22C0E0CF
:10085D00740414120144D0E0C000A83B120149D029
:10086D0000C000A83A120149D00022853A48853BC4
:10087D0049854838854939753A00753B00753C0006
:10088D00120206853034853135853236853337F59C
:10089D003075310075320075330012017D1202ED95
:1008AD0022D206D295C283209519C0027A32120047
:1008BD00B5D00220950DD283C283A2959202D28328
:1008CD0030020122B20880FB12047474811200FF01
:1008DD0074031200FA12044774C41200FF7402125A
:1008ED0000FA1204A174871200FF74041200FA12A8
:1008FD00041A74CA1200FF74011200FA12047474FF
:10090D008D1200FF74031200FA3212047474C012B7
:10091D0000FF74031200FA12044774831200FF746F
:10092D00021200FA1204A174C71200FF740412001F
:10093D00FA12041A748B1200FF74011200FA1204D9
:10094D007474CE1200FF74031200FA32C0E0740109
:10095D0014120144D0E0C083C082C0E09000961212
:10096D000137D0E0D082D083C0E07401141201426F
:10097D00D0E0C083C082C0E0900096120137D0E075
:10098D00D082D0833275817F75B10075B20075B399
:10099D000075B40075AD0075AD0012053712010478
:1009AD001204CE1204F1D2AFC0E07401141201444E
:1009BD00D0E0C083C082C0E090002E120137D0E09D
:1009CD00D082D083C0E0740114120142D0E0C08304
:1009DD00C082C0E090003F120137D0E0D082D083BA
:1009ED00754B00753F0075458C75443C7543E67538
:1009FD00421E753800D2CAC208C28CE54BB4004AFB
:100A0D0075470012057F1206901207BC3008387525
:100A1D003F00754B01C0E0740114120142D0E0C0DB
:100A2D0083C082C0E0900050120137D0E0D082D058
:100A3D0083D28CC0027AFA1200B5D002C0027AFAC3
:100A4D001200B5D002C28C020A08B4014D7547647C
:100A5D00C31208AE300834743C953F401AC33001C0
:100A6D0013C2011206CDE545120878300006753F18
:100A7D0000754B02020A0874323001F81206CD12CD
:100A8D0008782000D8754B00020992C2CA300805BB
:100A9D00D2CA020A081208AE80F1B4023D7547149D
:100AAD00C0E0740114120142D0E0C083C082C0E0E6
:100ABD0090005E120137D0E0D082D083C31208AE11
:100ACD003008C8300111C2011206CDE544953F50E2
:100ADD0006753F00754B03020A08B403427547645F
:100AED00C0E0740114120142D0E0C083C082C0E0A6
:100AFD0090006C120137D0E0D082D083C31208AEC3
:100B0D00300888300113C2011206CDE54312087872
:100B1D00300006753F00754B04020A08020A98B4AE
:100B2D00043D754714C0E0740114120142D0E0C0B9
:100B3D0083C082C0E090007A120137D0E0D082D01D
:100B4D0083C31208AE3008D4300111C2011206CD94
:100B5D00E542953F5006753F00754B05020A08B4F6
:100B6D000542754700C0E0740114120142D0E0C087
:100B7D0083C082C0E0900088120137D0E0D082D0CF
:100B8D0083C31208AE300894300113C2011206CD92
:100B9D00743C120878200006753F00754B06020A5A
:100BAD0008020A08B406FAC2CAD28CD2A91208D514
:100BBD00754D7C754CBDC0027A781200B5D00275AA
:100BCD004D6C754CA1C0027A781200B5D002754DEE
:100BDD0063754CC0C0027A781200B5D002754D6CA9
:100BED00754CA1C0027A781200B5D00212095912C3
:100BFD000917754D84754C05C0027AF01200B5D0F9
:100C0D0002C0027AF01200B5D0021209591208D5AD
:100C1D00754D84754C05C0027A781200B5D00275F9
:100C2D004D84754C05C0027A781200B5D002754D11
:100C3D00BE754C5FC0027A781200B5D002754DC2F8
:100C4D00754C12C0027A781200B5D00212095912F1
:100C5D000917754DCE754CD7C0027AF01200B5D07C
:100C6D0002C0027AF01200B5D0021209591208D54D
:100C7D00754DD1754C96C0027A781200B5D00275BB
:100C8D004DCE754CD7C0027A781200B5D002754D95
:100C9D00CB754CEBC0027A781200B5D002754DCEF3
:100CAD00754CD7C0027A781200B5D00212095912CC
:100CBD000917754DDF754C30C0027A781200B5D02A
:100CCD0002754DDB754C29C0027A781200B5D00241
:100CDD00754DD8754CF7C0027A781200B5D00275F3
:100CED004DDB754C29C0027A781200B5D00212097D
:100CFD00591208D5754DDF754C30C0027A78120047
:100D0D00B5D002754DDB754C29C0027A781200B54D
:100D1D00D002754DD8754CF7C0027A781200B5D057
:100D2D0002754DDB754C29C0027A781200B5D002E0
:100D3D00120959120917754DE1754C05C0027AF06B
:100D4D001200B5D002C0027AF01200B5D00212091D
:100D5D00591208D5754DDB754C29C0027AF0120079
:100D6D00B5D002754DE1754C05C0027AF01200B593
:100D7D00D002120959120917754DDF754C30C0029A
:100D8D007AF01200B5D002754DDB754C29C0027A90
:100D9D00F01200B5D0021209591208D5754DD6754D
:100DAD004C29C0027AF01200B5D002754DDB754C9E
:100DBD0029C0027AF01200B5D00212095912091792
:100DCD00754DDF754C30C0027AF01200B5D002754A
:100DDD004DDB754C29C0027AF01200B5D002120914
:100DED00591208D5754DD6754C29C0027AF01200EE
:100DFD00B5D002754DDB754C29C0027AF01200B5E5
:100E0D00D002120959120917754DDF754C30C00209
:100E1D007AF01200B5D002754DDB754C29C0027AFF
:100E2D00F01200B5D0021209591208D5754DD675BC
:100E3D004C29C0027AF01200B5D002754DD4754C14
:100E4D0030C0027AF01200B5D002120959120917FA
:100E5D00754DCE754CD7C0027AF01200B5D002C0D8
:100E6D00027AF01200B5D0021209591208D5020902
:010E7D0092E2
:00000001FF
