:10000000020579546F3D7878784320546A3D203258
:1000100032432000737878782C787820727878785A
:100020002C7878200052616D70546F536F616B2093
:10003000733D78787800536F616B20090920733D18
:100040007878780052616D70546F5065616B2073E1
:100050003D787878005265666C6F77200920733D93
:1000600078787800436F6F6C696E67200920733D64
:040070007878780024
:10007400C000788500D8FDD00022C000C0017928D6
:100084007868D8FED9FADAF6D001D00022D29412D8
:100094000074C29422A2E79283A2E69282A2E5921D
:1000A40081A2E49280120091120074A2E39283A2CE
:1000B400E29282A2E19281A2E0928012009122D285
:1000C40093020099C293020099C294C0027A281242
:1000D400007ED00274331200C874331200C8743224
:1000E4001200C874281200C8740C1200C8740112DB
:1000F40000C8C0027A0212007ED00222E493600695
:100104001200C3A380F622444044800200C8C0E029
:10011400E8C4540F44301200C3E8540F44301200B2
:10012400C3D0E022C0E0E8C4540F443012045EE8B7
:0A013400540F443012045ED0E022A4
:10013E00C0E0C0D0C000C001C002E4F538F539F50A
:10014E003AF53BF53C7A20E533A2E779047830E6C0
:10015E0033F608D9FA79057838E636D4F608D9F99F
:10016E00DAE5D002D001D000D0D0D0E022C0E0C07D
:10017E00D0C000C001C002E4F538F539F53AF53BC0
:10018E00F53C7A20E533A2E779047830E633F608B9
:10019E00D9FA79057838C0D0E6243320E70224D086
:1001AE0020E30224FDD0D033F608D9EADAD6D00205
:1001BE00D001D000D0D0D0E022C0E0C0D0C000C06E
:1001CE0001C0027A207905C3783CE613C0D030E72F
:1001DE000224D030E30224FDF618D0D0D9EC7904F5
:1001EE007833E613F618D9FADADBD002D001D00054
:1001FE00D0D0D0E022C0E0C0D0E5302534F530E5D7
:10020E00313535F531E5323536F532E5333537F5FD
:10021E0033D0D0D0E022C0E0C0D0C3E5309534F565
:10022E0030E5319535F531E5329536F532E53395D4
:10023E0037F533D0D0D0E022C0E0C0D0C3E5309542
:10024E0034E5319535E5329536E53395379200D064
:10025E00D0D0E022C0E0C0D0C3E5349530E535956E
:10026E0031E5369532E53795339200D0D0D0E02285
:10027E00C0E0C0D0C200C3E53495307014E53595AA
:10028E0031700EE53695327008E53795337002D22F
:10029E0000D0D0D0E02212027E20000302026222A1
:1002AE0012027E20000302024622C0E0C0F0C0D03F
:1002BE00C000C001C002C003E5308534F0A4F8A927
:1002CE00F0E5318534F0A429F9E435F0FAE530850E
:1002DE0035F0A429F9E5F03AFAE433FBE53285343A
:1002EE00F0A42AFAE5F03BFBE5318535F0A42AFAB5
:1002FE00E5F03BFBE5308536F0A42AFAE5F03BFB52
:10030E00E5338534F0A42BFBE5328535F0A42BFBC9
:10031E00E5318536F0A42BFBE5308537F0A42BFBB9
:10032E008B338A3289318830D003D002D001D0008D
:10033E00D0D0D0F0D0E022C0E0C0D0C000C001C00C
:10034E0002C003C0047C20E4F8F9FAFBC3E53033A5
:10035E00F530E53133F531E53233F532E53333F54A
:10036E0033E833F8E933F9EA33FAEB33FBC3E895B4
:10037E0034E99535EA9536EB95374013E89534F820
:10038E00E99535F9EA9536FAEB9537FB433001DC02
:10039E00BBD004D003D002D001D000D0D0D0E02208
:1003AE00438E08E58954F04401F589758CF0758A01
:1003BE002CD2A9D28C22C28C758CF0758A2CD28C40
:1003CE00B2973275C80075CDBF75CC2843C98075FC
:1003DE00CBBF75CA28E4F53DF53E754700439B80BB
:1003EE00D2CA22C2CFB284C0D0C0E00546C3E54710
:1003FE009546B39290E546B46407754600053FD224
:10040E0001D0E0D0D03275AC0075AD0075B300757B
:10041E00B40075B10075B200438E10438780759895
:10042E005253C4DF53890F438920758DF7D28EC284
:10043E008C438E085389F043890143B38253B47DB4
:10044E0053E8F043E80775F60043F68143E10122D5
:10045E003099FDC299F59922C28CC28D758CBF75EB
:10046E008A28D28C308DFD22120466DAFB22C0E07F
:10047E0074041412010DD0E0C000A83C120112D079
:10048E0000C000A83B120112D000C000A83A120111
:10049E0012D00022C2EFD2EE30EFFDE5C3C4C0E0B1
:1004AE00540FF9D0E054F045C2F8883089317532D6
:1004BE000075330075347C7535C47536007537009C
:1004CE001202B87534FF75350F7536007537001288
:1004DE0003457534E875350375360075370012021D
:1004EE00B875340A7535007536007537001202B8C6
:1004FE007534CC75355B753600753700120345754E
:10050E00342975350075360075370012034575347C
:10051E00107535277536007537001202B8753460C0
:10052E0075355B75360375370012020312013E12E4
:10053E00047CC000A83B120128D000C000A83A12CB
:10054E000128D000C000A839120128D000C000A890
:10055E0038120128D000740D12045E740A12045E63
:10056E007AFA1204767AFA1204763275817F1204C0
:10057E00141200CD1203AE1203D1D2AFC0E074013B
:10058E001412010DD0E0C083C082C0E090000312AF
:10059E000100D0E0D082D083C0E074011412010BB0
:1005AE00D0E0C083C082C0E0900014120100D0E001
:1005BE00D082D083753F007545E07544607543E683
:0505CE00754230D2CAA5
:00000001FF
