:100000000205BF546F3D7878784320546A3D2078CC
:10001000784300737878782C787820727878782C08
:03002000787800ED
:10002300C000788500D8FDD00022C000C001792827
:100033007868D8FED9FADAF6D001D00022D2941229
:100043000023C29422A2E79283A2E69282A2E592BF
:1000530081A2E49280120040120023A2E39283A2C1
:10006300E29282A2E19281A2E0928012004022D227
:1000730093020048C293020048C294C0027A281235
:10008300002DD00274331200777433120077743268
:100093001200777428120077740C1200777401121F
:1000A3000077C0027A0212002DD00222E493600688
:1000B300120072A380F62244404480020077C0E01D
:1000C300E8C4540F4430120072E8540F4430120055
:0400D30072D0E022E5
:1000D700C0E0C0D0C000C001C002E4F538F539F572
:1000E7003AF53BF53C7A20E533A2E779047830E628
:1000F70033F608D9FA79057838E636D4F608D9F907
:10010700DAE5D002D001D000D0D0D0E022C0E0C0E4
:10011700D0C000C001C002E4F538F539F53AF53B27
:10012700F53C7A20E533A2E779047830E633F60820
:10013700D9FA79057838C0D0E6243320E70224D0ED
:1001470020E30224FDD0D033F608D9EADAD6D0026C
:10015700D001D000D0D0D0E022C0E0C0D0C000C0D5
:1001670001C0027A207905C3783CE613C0D030E796
:100177000224D030E30224FDF618D0D0D9EC79045C
:100187007833E613F618D9FADADBD002D001D000BB
:10019700D0D0D0E022C0E0C0D0E5302534F530E53E
:1001A700313535F531E5323536F532E5333537F565
:1001B70033D0D0D0E022C0E0C0D0C3E5309534F5CD
:1001C70030E5319535F531E5329536F532E533953C
:1001D70037F533D0D0D0E022C0E0C0D0C3E53095AA
:1001E70034E5319535E5329536E53395379200D0CC
:1001F700D0D0E022C0E0C0D0C3E5349530E53595D6
:1002070031E5369532E53795339200D0D0D0E022EC
:10021700C0E0C0D0C200C3E53495307014E5359511
:1002270031700EE53695327008E53795337002D296
:1002370000D0D0D0E0221202172000030201FB22D7
:100247001202172000030201DF22C0E0C0F0C0D075
:10025700C000C001C002C003E5308534F0A4F8A98E
:10026700F0E5318534F0A429F9E435F0FAE5308575
:1002770035F0A429F9E5F03AFAE433FBE5328534A1
:10028700F0A42AFAE5F03BFBE5318535F0A42AFA1C
:10029700E5F03BFBE5308536F0A42AFAE5F03BFBB9
:1002A700E5338534F0A42BFBE5328535F0A42BFB31
:1002B700E5318536F0A42BFBE5308537F0A42BFB21
:1002C7008B338A3289318830D003D002D001D000F5
:1002D700D0D0D0F0D0E022C0E0C0D0C000C001C074
:1002E70002C003C0047C20E4F8F9FAFBC3E530330D
:1002F700F530E53133F531E53233F532E53333F5B2
:1003070033E833F8E933F9EA33FAEB33FBC3E8951B
:1003170034E99535EA9536EB95374013E89534F887
:10032700E99535F9EA9536FAEB9537FB433001DC69
:10033700BBD004D003D002D001D000D0D0D0E0226F
:10034700438E08E58954F04401F589758CF0758A68
:100357002CD2A9D28C22C28C758CF0758A2CD28CA7
:10036700B2973275C80075CDBF75CC2843C9807563
:10037700CBBF75CA28E4F53DF53E754700439B8022
:10038700D2CA22C2CFB284C0D0C0E00546C3E54777
:100397009546B39290E546B46407754600053FD28B
:1003A70001D0E0D0D03275AC0075AD0075B30075E3
:1003B700B40075B10075B200438E104387807598FD
:1003C7005253C4DF53890F438920758DF7D28EC2EC
:1003D7008C438E085389F043890143B38253B47D1C
:1003E70053E8F043E80775F60043F68143E101223D
:1003F7003099FDC299F59922C28CC28D758CBF7553
:100407008A28D28C308DFD221203FFDAFB22D2021A
:10041700D203D204D205D206D295C280C281C2824B
:10042700C283C2932095497A3212040F209541D294
:1004370080D281D282D283D293C293A2959206D2DE
:100447009330062DC280A2959205D28030052EC228
:1004570081A2959204D28130042FC282A295920381
:10046700D282300330C283A2959202D28330023106
:10047700220545E545B4F0F875450080F30544E5E8
:1004870044B478EC75440080E70543E543B4F0E0F5
:1004970075430080DB0542E542B44BD475420080CA
:1004A700CFB20780CBC0E0E8C4540F44301203F743
:1004B700E8540F44301203F7D0E022C0E0740A1466
:1004C7001200BAD0E0C000A83A1200C1D000C0E0C4
:1004D700742E120072D0E0C000A8391200C1D000FB
:1004E700C000A8381200C1D000C0E0740A1412007E
:1004F700BAD0E022C2EFD2EE30EFFDE5C2540FF8DA
:10050700E5C3C4C0E0540FF9D0E054F048F82253D3
:10051700E8F043E8001204FB8840894153E8F043C0
:10052700E8071204FB88308931753200753300758E
:100537003404753551753600753700120251854000
:10054700348541357536007537001202DE7534A4DF
:1005570075356A7536007537001201BD75346475D7
:1005670035007536007537001202511200D7120494
:10057700C2C000A83C1204ACD000C000A83B1204C3
:10058700ACD000C000A83A1204ACD000742E1203FD
:10059700F7C000A8391204ACD000C000A838120474
:1005A700ACD000740D1203F7740A1203F77AFA122B
:1005B700040F7AFA12040F3275817F1203AD12000D
:1005C7007C12034712036AD2AFC0E0740114120011
:1005D700BCD0E0C083C082C0E09000031200AFD05F
:1005E700E0D082D083C0E07401141200BAD0E0C01A
:1005F70083C082C0E09000131200AFD0E0D082D059
:1006070083753F0075458C7544607543E6754230C8
:05061700D2CA02061921
:00000001FF
