:10000000020610546F3D7878784320546A3D2032C0
:1000100032432000737878782C787820727878785A
:100020002C7878200052616D70546F536F616B2093
:10003000733D78787800536F616B20090920733D18
:100040007878780052616D70546F5065616B2073E1
:100050003D787878005265666C6F77200920733D93
:1000600078787800436F6F6C696E67200920733D64
:040070007878780024
:10007400C000788500D8FDD00022C000C0017928D6
:100084007868D8FED9FADAF6D001D00022D29412D8
:100094000074C29422A2E79283A2E69282A2E5921D
:1000A40081A2E49280120091120074A2E39283A2CE
:1000B400E29282A2E19281A2E0928012009122D285
:1000C40093020099C293020099C294C0027A281242
:1000D400007ED00274331200C874331200C8743224
:1000E4001200C874281200C8740C1200C8740112DB
:1000F40000C8C0027A0212007ED00222E493600695
:100104001200C3A380F622444044800200C8C0E029
:10011400E8C4540F44301200C3E8540F44301200B2
:10012400C3D0E0223099FDC299F59922C0E0E8C419
:10013400540F4430120128E8540F4430120128D0DF
:02014400E022B7
:10014600C0E0C0D0C000C001C002E4F538F539F502
:100156003AF53BF53C7A20E533A2E779047830E6B8
:1001660033F608D9FA79057838E636D4F608D9F997
:10017600DAE5D002D001D000D0D0D0E022C0E0C075
:10018600D0C000C001C002E4F538F539F53AF53BB8
:10019600F53C7A20E533A2E779047830E633F608B1
:1001A600D9FA79057838C0D0E6243320E70224D07E
:1001B60020E30224FDD0D033F608D9EADAD6D002FD
:1001C600D001D000D0D0D0E022C0E0C0D0C000C066
:1001D60001C0027A207905C3783CE613C0D030E727
:1001E6000224D030E30224FDF618D0D0D9EC7904ED
:1001F6007833E613F618D9FADADBD002D001D0004C
:10020600D0D0D0E022C0E0C0D0E5302534F530E5CE
:10021600313535F531E5323536F532E5333537F5F5
:1002260033D0D0D0E022C0E0C0D0C3E5309534F55D
:1002360030E5319535F531E5329536F532E53395CC
:1002460037F533D0D0D0E022C0E0C0D0C3E530953A
:1002560034E5319535E5329536E53395379200D05C
:10026600D0D0E022C0E0C0D0C3E5349530E5359566
:1002760031E5369532E53795339200D0D0D0E0227D
:10028600C0E0C0D0C200C3E53495307014E53595A2
:1002960031700EE53695327008E53795337002D227
:1002A60000D0D0D0E02212028620000302026A2289
:1002B60012028620000302024E22C0E0C0F0C0D027
:1002C600C000C001C002C003E5308534F0A4F8A91F
:1002D600F0E5318534F0A429F9E435F0FAE5308506
:1002E60035F0A429F9E5F03AFAE433FBE532853432
:1002F600F0A42AFAE5F03BFBE5318535F0A42AFAAD
:10030600E5F03BFBE5308536F0A42AFAE5F03BFB49
:10031600E5338534F0A42BFBE5328535F0A42BFBC1
:10032600E5318536F0A42BFBE5308537F0A42BFBB1
:100336008B338A3289318830D003D002D001D00085
:10034600D0D0D0F0D0E022C0E0C0D0C000C001C004
:1003560002C003C0047C20E4F8F9FAFBC3E530339D
:10036600F530E53133F531E53233F532E53333F542
:1003760033E833F8E933F9EA33FAEB33FBC3E895AC
:1003860034E99535EA9536EB95374013E89534F818
:10039600E99535F9EA9536FAEB9537FB433001DCFA
:1003A600BBD004D003D002D001D000D0D0D0E02200
:1003B600438E08E58954F04401F589758CF0758AF9
:1003C6002CD2A9D28C22C28C758CF0758A2CD28C38
:1003D600B2973275C80075CDBF75CC2843C98075F4
:1003E600CBBF75CA28E4F53DF53E754700439B80B3
:1003F600D2CA22C2CFB284C0D0C0E00546C3E54708
:100406009546B39290E546B46407754600053FD21B
:1004160001D0E0D0D03275AC0075AD0075B3007573
:10042600B40075B10075B200438E1043878075988D
:100436005253C4DF53890F438920758DF7D28EC27C
:100446008C438E085389F043890143B38253B47DAC
:1004560053E8F043E80775F60043F68143E10122CD
:10046600C28CC28D758CBF758A28D28C308DFD22C8
:10047600120466DAFB22D202D203D204D205D206D5
:10048600D295C280C281C282C283C2932095497A24
:1004960032120476209541D280D281D282D283D282
:1004A60093C293A2959206D29330062DC280A2954E
:1004B6009205D28030052EC281A2959204D2813057
:1004C600042FC282A2959203D282300330C283A245
:1004D600959202D283300231220545E545B4F0F803
:1004E60075450080F30544E544B478EC7544008016
:1004F600E70543E543B4F0E075430080DB0542E5DC
:1005060042B44BD475420080CFB20780CBC0E074B2
:10051600041412010DD0E0C000A83C120112D00054
:10052600C000A83B120112D000C000A83A12011266
:10053600D00022C2EFD2EE30EFFDE5C3C4C0E054D6
:100546000FF9D0E054F045C2F88830893175320091
:1005560075330075347C7535C475360075370012F1
:1005660002C07534FF75350F7536007537001203F6
:100576004D7534E87535037536007537001202C0BF
:1005860075340A7535007536007537001202C07568
:1005960034CC75355B75360075370012034D7534EE
:1005A6002975350075360075370012034D75341000
:1005B6007535277536007537001202C075346075BB
:1005C600355B75360375370012020B1201461205AC
:1005D60013C000A83B120130D000C000A83A120197
:1005E60030D000C000A839120130D000C000A838B1
:1005F600120130D000740D120128740A1201287AF3
:10060600FA1204767AFA1204763275817F12041C85
:100616001200CD1203B61203D9D2AFC0E074011492
:1006260012010DD0E0C083C082C0E0900003120129
:1006360000D0E0D082D083C0E074011412010BD048
:10064600E0C083C082C0E0900014120100D0E0D068
:1006560082D083753F007545E07544607543E67545
:100666004230D2CAE54BB4000F7547003007067515
:100676003F00754B0102066AB40154754764C0E039
:1006860074011412010BD0E0C083C082C0E0900058
:1006960025120100D0E0D082D083C33007257460D4
:1006A600953F4013C3E54585384895485006753F44
:1006B60000754B0202066A7432853848954840E454
:1006C600754B00C2CA300705D2CA02066A80F4B466
:1006D6000232754714E544C0E074011412010BD0D0
:1006E600E0C083C082C0E0900036120100D0E0D0A6
:1006F60082D083C33007CC953F5006753F00754BBB
:100706000302066AB4033B754764E543C0E074011F
:100716001412010BD0E0C083C082C0E090004412E6
:100726000100D0E0D082D083C33007978538489542
:10073600485006753F00754B0402066A02066C02B5
:1007460006C9B40432754714E542C0E074011412B8
:10075600010BD0E0C083C082C0E0900055120100BA
:10076600D0E0D082D083C33007D5953F5006753F81
:1007760000754B0502066AB405C2754700743CC095
:10078600E074011412010BD0E0C083C082C0E09077
:100796000064120100D0E0D082D083C33007A08568
:0F07A600384895485006753F00754B0002066AAB
:00000001FF
