:1000000002064D546F3D7878784320546A3D20783D
:1000100078432000737878782C7878207278787814
:100020002C7878200052616D70546F536F616B2093
:10003000733D78787800536F616B20090920733D18
:100040007878780052616D70546F5065616B2073E1
:100050003D787878005265666C6F77200920733D93
:1000600078787800436F6F6C696E67200920733D64
:08007000787878004300460097
:10007800C000788500D8FDD00022C000C0017928D2
:100088007868D8FED9FADAF6D001D00022D29412D4
:100098000078C29422A2E79283A2E69282A2E59215
:1000A80081A2E49280120095120078A2E39283A2C2
:1000B800E29282A2E19281A2E0928012009522D27D
:1000C8009302009DC29302009DC294C0027A281236
:1000D8000082D00274331200CC74331200CC743214
:1000E8001200CC74281200CC740C1200CC740112CB
:1000F80000CCC0027A02120082D00222E493600689
:100108001200C7A380F622444044800200CCC0E01D
:10011800E8C4540F44301200C7E8540F44301200AA
:04012800C7D0E0223A
:10012C00C0E0C0D0C000C001C002E4F538F539F51C
:10013C003AF53BF53C7A20E533A2E779047830E6D2
:10014C0033F608D9FA79057838E636D4F608D9F9B1
:10015C00DAE5D002D001D000D0D0D0E022C0E0C08F
:10016C00D0C000C001C002E4F538F539F53AF53BD2
:10017C00F53C7A20E533A2E779047830E633F608CB
:10018C00D9FA79057838C0D0E6243320E70224D098
:10019C0020E30224FDD0D033F608D9EADAD6D00217
:1001AC00D001D000D0D0D0E022C0E0C0D0C000C080
:1001BC0001C0027A207905C3783CE613C0D030E741
:1001CC000224D030E30224FDF618D0D0D9EC790407
:1001DC007833E613F618D9FADADBD002D001D00066
:1001EC00D0D0D0E022C0E0C0D0E5302534F530E5E9
:1001FC00313535F531E5323536F532E5333537F510
:10020C0033D0D0D0E022C0E0C0D0C3E5309534F577
:10021C0030E5319535F531E5329536F532E53395E6
:10022C0037F533D0D0D0E022C0E0C0D0C3E5309554
:10023C0034E5319535E5329536E53395379200D076
:10024C00D0D0E022C0E0C0D0C3E5349530E5359580
:10025C0031E5369532E53795339200D0D0D0E02297
:10026C00C0E0C0D0C200C3E53495307014E53595BC
:10027C0031700EE53695327008E53795337002D241
:10028C0000D0D0D0E02212026C20000302025022D7
:10029C0012026C20000302023422C0E0C0F0C0D075
:1002AC00C000C001C002C003E5308534F0A4F8A939
:1002BC00F0E5318534F0A429F9E435F0FAE5308520
:1002CC0035F0A429F9E5F03AFAE433FBE53285344C
:1002DC00F0A42AFAE5F03BFBE5318535F0A42AFAC7
:1002EC00E5F03BFBE5308536F0A42AFAE5F03BFB64
:1002FC00E5338534F0A42BFBE5328535F0A42BFBDC
:10030C00E5318536F0A42BFBE5308537F0A42BFBCB
:10031C008B338A3289318830D003D002D001D0009F
:10032C00D0D0D0F0D0E022C0E0C0D0C000C001C01E
:10033C0002C003C0047C20E4F8F9FAFBC3E53033B7
:10034C00F530E53133F531E53233F532E53333F55C
:10035C0033E833F8E933F9EA33FAEB33FBC3E895C6
:10036C0034E99535EA9536EB95374013E89534F832
:10037C00E99535F9EA9536FAEB9537FB433001DC14
:10038C00BBD004D003D002D001D000D0D0D0E0221A
:10039C00438E08E58954F04401F589758CF0758A13
:1003AC002CD2A9D28C22C28C758CF0758A2CD28C52
:1003BC00B2973275C80075CDBF75CC2843C980750E
:1003CC00CBBF75CA28E4F53DF53E754700439B80CD
:1003DC00D2CA22C2CFB284C0D0C0E00546C3E54722
:1003EC009546B39290E546B46407754600053FD236
:1003FC0001D0E0D0D03275AC0075AD0075B300758E
:10040C00B40075B10075B200438E104387807598A7
:10041C005253C4DF53890F438920758DF7D28EC296
:10042C008C438E085389F043890143B38253B47DC6
:10043C0053E8F043E80775F60043F68143E10122E7
:10044C003099FDC299F59922C28CC28D758CBF75FD
:10045C008A28D28C308DFD22120454DAFB22D2026F
:10046C00D203D204D205D206D295C280C281C282F6
:10047C00C283C2932095497A32120464209541D2EA
:10048C0080D281D282D283D293C293A2959206D289
:10049C009330062DC280A2959205D28030052EC2D3
:1004AC0081A2959204D28130042FC282A29592032C
:1004BC00D282300330C283A2959202D283300231B1
:1004CC00220545E545B4F0F875450080F30544E593
:1004DC0044B478EC75440080E70543E543B4F0E0A0
:1004EC0075430080DB0542E542B44BD47542008075
:1004FC00CFB20780CBC0E0E8C4540F443012044C98
:10050C00E8540F443012044CD0E022C0E0740514BF
:10051C0012010FD0E0C000A83C120116D000C000A0
:10052C00A83B120116D000C000A83A120116D00048
:10053C00C0E0742E1200C7D0E0C000A8391201161A
:10054C00D000C000A838120116D000C0E0740D1401
:10055C00120111D0E0C083C082C0E090007412017F
:10056C0004D0E0D082D083800022C2EFD2EE30EFF4
:10057C00FDE5C3C4C0E0540FF9D0E054F045C2F817
:10058C008830893175320075330075347C7535C40B
:10059C007536007537001202A67534FF75350F7568
:1005AC0036007537001203337534E875350375362C
:1005BC00007537001202A675340A753500753600C1
:1005CC007537001202A67534CC75355B753600751F
:1005DC0037001203337534297535007536007537BD
:1005EC0000120333753410753527753600753700D6
:1005FC001202A675346075355B75360375370012BB
:10060C0001F112012C120517C000A83B120501D0F4
:10061C0000C000A83A120501D000C000A83912058C
:10062C0001D000C000A838120501D000740D1204CE
:10063C004C740A12044C7AFA1204647AFA120464A6
:10064C003275817F1204021200D112039C1203BF77
:10065C00D2AFC0E0740114120111D0E0C083C0828B
:10066C00C0E0900003120104D0E0D082D083C0E03F
:10067C0074011412010FD0E0C083C082C0E090005E
:10068C0014120104D0E0D082D083753F0075458CE4
:10069C007544607543E6754230D2CAE54BB4000F21
:1006AC00754700300706753F00754B010206A7B46D
:1006BC00014E754764C0E074011412010FD0E0C004
:1006CC0083C082C0E0900025120104D0E0D082D01B
:1006DC0083C330071F7460953F4010C3E5459548B0
:1006EC005006753F00754B020206A77432954840C0
:1006FC00EA754B00C2CA300705D2CA0206A780F4BD
:10070C00B40232754714E544C0E074011412010FB1
:10071C00D0E0C083C082C0E0900036120104D0E06B
:10072C00D082D083C33007CC953F5006753F0075FF
:10073C004B030206A7B40338754764E543C0E07465
:10074C00011412010FD0E0C083C082C0E0900044BD
:10075C00120104D0E0D082D083C330079795485063
:10076C0006753F00754B040206A70206A902070096
:10077C00B40432754714E542C0E074011412010F41
:10078C00D0E0C083C082C0E0900055120104D0E0DC
:10079C00D082D083C33007D5953F5006753F007586
:1007AC004B050206A7B405C2754700743CC0E07443
:1007BC00011412010FD0E0C083C082C0E09000642D
:1007CC00120104D0E0D082D083C33007A0954850EA
:0A07DC0006753F00754B000206A7EA
:00000001FF
