:03000000020154A6
:0100030032CA
:01000B0032C2
:0100130032BA
:01001B0032B2
:0100230032AA
:03002B00020111BE
:10002E00C000788500D8FDD00022C000C00179281C
:10003E007868D8FED9FADAF6D001D00022D294121E
:10004E00002EC29422A2E79283A2E69282A2E592A9
:10005E0081A2E4928012004B12002EA2E39283A2A0
:10006E00E29282A2E19281A2E0928012004B22D211
:10007E0093020053C293020053C294C0027A281214
:10008E000038D0027433120082743312008274323C
:10009E001200827428120082740C120082740112F3
:1000AE000082C0027A02120038D00222E493600667
:1000BE0012007DA380F62244404480020082C0E0FC
:1000CE00E8C4540F443012007DE8540F443012003F
:1000DE007DD0E02275AC0075AD0075B30075B4002F
:1000EE0075B10075B20075C80075CDD775CC797530
:1000FE00C9A075CBD775CA79753000439B80D2CA1B
:10010E00D2AF22C2CFC0D0C0E00530C3E5319530AA
:10011E00B39290E530B464077530000532D200D04A
:10012E00E0D0D03250574D204578616D706C65200F
:10013E00202020200043686B2070696E2031353AF4
:10014E0050312E30200075817F1200E2120087C0E0
:10015E00E07401141200C7D0E09001321200BAC050
:10016E00E07401141200C5D0E09001431200BA757C
:05017E003114020180B4
:00000001FF
