:0300000002015E9C
:0100030032CA
:03000B00020105EA
:0100130032BA
:01001B0032B2
:0100230032AA
:03002B0002012FA0
:10002E00C000788500D8FDD00022C000C00179281C
:10003E007868D8FED9FADAF6D001D00022D294121E
:10004E00002EC29422A2E79283A2E69282A2E592A9
:10005E0081A2E4928012004B12002EA2E39283A2A0
:10006E00E29282A2E19281A2E0928012004B22D211
:10007E0093020053C293020053C294C0027A281214
:10008E000038D0027433120082743312008274323C
:10009E001200827428120082740C120082740112F3
:1000AE000082C0027A02120038D00222E493600667
:1000BE0012007DA380F62244404480020082C0E0FC
:1000CE00E8C4540F443012007DE8540F443012003F
:1000DE007DD0E0227E4D7573696320546573747E06
:1000EE0000438E08E58954F04401F589758C8475BA
:1000FE008A05D2A9D28C22C28C758C84758A05D2BF
:10010E008CB2973275C80075CDBF75CC2843C980A7
:10011E0075CBBF75CA28E4F530F531439B80D2CA42
:10012E0022C2CFB284C0E0C0D00530E530700205E7
:10013E0031E530B43215E531B40010D200B28CE4A2
:10014E00F530F53180022499D4F532D0D0D0E0329A
:10015E0075817F75B10075B20075B30075B4007509
:10016E00AD0075AD001200EF120112D2AF12008772
:10017E00C0E07401141200C7D0E0C083C082C0E09A
:10018E009000E21200BAD0E0D082D083D200753255
:10019E00002095132095103095FDC2CAE4F530F578
:0D01AE0031F532D2CA80033000E702019F14
:00000001FF
