:03000000020149B1
:0100030032CA
:03000B000200FDF3
:0100130032BA
:01001B0032B2
:0100230032AA
:03002B00020121AE
:10002E00C000788500D8FDD00022C000C00179281C
:10003E007868D8FED9FADAF6D001D00022D294121E
:10004E00002EC29422A2E79283A2E69282A2E592A9
:10005E0081A2E4928012004B12002EA2E39283A2A0
:10006E00E29282A2E19281A2E0928012004B22D211
:10007E0093020053C293020053C294C0027A281214
:10008E000038D0027433120082743312008274323C
:10009E001200827428120082740C120082740112F3
:1000AE000082C0027A02120038D00222E493600667
:1000BE0012007DA380F62244404480020082C0E0FC
:1000CE00E8C4540F443012007DE8540F443012003F
:1000DE007DD0E0227E4D7573696320546573747E06
:1000EE0000438E08E58954F04401F589D28C22C272
:1000FE008CD28CB2973275C80075CDBF75CC2843A3
:10010E00C98075CBBF75CA28E4F530F531439B80A5
:10011E00D2CA22C2CFB284C0E0C0D00530E5307062
:10012E00020531E530B4320EE531B40009D200B229
:10013E008CE4F530F531D0D0D0E03275817F75B1D9
:10014E000075B20075B30075B40075AD0075AD00E5
:10015E001200EF120104D2AF120087C0E074011436
:10016E001200C7D0E0C083C082C0E09000E212004F
:10017E00BAD0E0D082D083D200753200D2A9E53356
:10018E00B40019C28C758C03758ADCD28C75330160
:10019E00C0027AFA120038D00202018AB401FDC2FE
:1001AE008C758C03758A70D28C753300C0027AFA06
:0801BE00120038D00202018A90
:00000001FF
