:030000000201A258
:10000300C000788500D8FDD00022C000C001792847
:100013007868D8FED9FADAF6D001D00022D2941249
:100023000003C29422A2E79283A2E69282A2E592FF
:1000330081A2E49280120020120003A2E39283A221
:10004300E29282A2E19281A2E0928012002022D267
:1000530093020028C293020028C294C0027A281295
:10006300000DD002743312005774331200577432E8
:100073001200577428120057740C1200577401129F
:100083000057C0027A0212000DD00222E4936006E8
:10009300120052A380F62244404480020057C0E07D
:1000A300E8C4540F4430120052E8540F4430120095
:1000B30052D0E0223099FDC299F59922C0E0E8C4FC
:1000C300540F44301200B7E8540F44301200B7D035
:1000D300E02220202020202020202020202020205B
:1000E30020200074481200577400120052740F123B
:1000F300005274091200527409120052741B120048
:1001030052741B12005274001152740012005222D6
:100113007450120057740412005274061200527481
:10012300051200527404120052740C12005274141B
:1001330012005274081152740012005222745812A1
:1001430000577400120052740A1200527415120000
:100153005274111200527411120052740A12005296
:100163007404115274001200522274601200577406
:10017300001200527404120052740E120052740ED4
:10018300120052740E120052741F120052740011A6
:100193005274041200522212005774201200527536
:1001A300817F75B10075B20075B30075B40075AD8C
:1001B3000075AD0012005C12014074811200577487
:1001C3000112005212011374C51200577402120077
:1001D3005212016D748812005774031200521200F8
:1001E300E674CB1200577404120052120140748E4D
:1001F3001200577405120052C0027AFA12000DD091
:1002030002C0E074011412009CD0E0C083C082C01D
:10021300E09000D512008FD0E0D082D083C0E0748C
:10022300011412009AD0E0C083C082C0E09000D5D0
:1002330012008FD0E0D082D08312014074C212002A
:10024300577401120052120113748512005774027D
:1002530012005212016D74C8120057740312005237
:100263001200E6748B1200577404120052120140FC
:1002730074CE1200577405120052C0027AFA1200AB
:100283000DD002C0E074011412009CD0E0C083C002
:1002930082C0E09000D512008FD0E0D082D083C01E
:1002A300E074011412009AD0E0C083C082C0E090D1
:0E02B30000D512008FD0E0D082D0830201BAB5
:00000001FF
