:1000000002042F2A2054656D7020286465672078CB
:1000100029202A0054203D202020202020004300B9
:02002000460098
:10002200C000788500D8FDD00022C000C001792828
:100032007868D8FED9FADAF6D001D00022D294122A
:100042000022C29422A2E79283A2E69282A2E592C1
:1000520081A2E4928012003F120022A2E39283A2C4
:10006200E29282A2E19281A2E0928012003F22D229
:1000720093020047C293020047C294C0027A281238
:10008200002CD0027433120076743312007674326C
:100092001200767428120076740C12007674011223
:1000A2000076C0027A0212002CD00222E49360068B
:1000B200120071A380F62244404480020076C0E020
:1000C200E8C4540F4430120071E8540F4430120057
:0400D20071D0E022E7
:1000D600C0E0C0D0C000C001C002E4F538F539F573
:1000E6003AF53BF53C7A20E533A2E779047830E629
:1000F60033F608D9FA79057838E636D4F608D9F908
:10010600DAE5D002D001D000D0D0D0E022C0E0C0E5
:10011600D0C000C001C002E4F538F539F53AF53B28
:10012600F53C7A20E533A2E779047830E633F60821
:10013600D9FA79057838C0D0E6243320E70224D0EE
:1001460020E30224FDD0D033F608D9EADAD6D0026D
:10015600D001D000D0D0D0E022C0E0C0D0C000C0D6
:1001660001C0027A207905C3783CE613C0D030E797
:100176000224D030E30224FDF618D0D0D9EC79045D
:100186007833E613F618D9FADADBD002D001D000BC
:10019600D0D0D0E022C0E0C0D0E5302534F530E53F
:1001A600313535F531E5323536F532E5333537F566
:1001B60033D0D0D0E022C0E0C0D0C3E5309534F5CE
:1001C60030E5319535F531E5329536F532E533953D
:1001D60037F533D0D0D0E022C0E0C0D0C3E53095AB
:1001E60034E5319535E5329536E53395379200D0CD
:1001F600D0D0E022C0E0C0D0C3E5349530E53595D7
:1002060031E5369532E53795339200D0D0D0E022ED
:10021600C0E0C0D0C200C3E53495307014E5359512
:1002260031700EE53695327008E53795337002D297
:1002360000D0D0D0E0221202162000030201FA22DA
:100246001202162000030201DE22C0E0C0F0C0D078
:10025600C000C001C002C003E5308534F0A4F8A98F
:10026600F0E5318534F0A429F9E435F0FAE5308576
:1002760035F0A429F9E5F03AFAE433FBE5328534A2
:10028600F0A42AFAE5F03BFBE5318535F0A42AFA1D
:10029600E5F03BFBE5308536F0A42AFAE5F03BFBBA
:1002A600E5338534F0A42BFBE5328535F0A42BFB32
:1002B600E5318536F0A42BFBE5308537F0A42BFB22
:1002C6008B338A3289318830D003D002D001D000F6
:1002D600D0D0D0F0D0E022C0E0C0D0C000C001C075
:1002E60002C003C0047C20E4F8F9FAFBC3E530330E
:1002F600F530E53133F531E53233F532E53333F5B3
:1003060033E833F8E933F9EA33FAEB33FBC3E8951C
:1003160034E99535EA9536EB95374013E89534F888
:10032600E99535F9EA9536FAEB9537FB433001DC6A
:10033600BBD004D003D002D001D000D0D0D0E02270
:1003460075AC0075AD0075B30075B40075B1007578
:10035600B200438E1043878075985253C4DF538989
:100366000F438920758DF7D28EC28C438E08538930
:10037600F043890143B30253B4FD53E8F043E80761
:1003860075F60043F68043E10122C28CC28D758C5E
:10039600BF758A28D28C308DFD22120390DAFB229B
:1003A600C0E0E8C4540F4430120427E8540F443028
:1003B600120427D0E022C0E07405141200B9D0E080
:1003C600C000A83B1200C0D000C000A83A1200C06E
:1003D600D000C0E0742E120071D0E0C000A839121F
:1003E60000C0D000C000A8381200C0D000C0E07421
:1003F6000D141200BBD0E0300114C083C082C0E0EF
:1004060090001E1200AED0E0D082D0838012C0834E
:10041600C082C0E09000201200AED0E0D082D0832F
:10042600223099FDC299F5992275817F12034612F1
:10043600007BD201C0E07401141200BBD0E0C0837F
:10044600C082C0E09000031200AED0E0D082D0831C
:10045600C0E07401141200B9D0E0C083C082C0E0CD
:100466009000141200AED0E0D082D083209519C03F
:10047600027A3212002CD00220950D3095FD200113
:1004860005D20102048EC201C2EFD2EE30EFFDE5C5
:10049600C3C4C0E0540FF9D0E054F045C2F8883028
:1004A60089317532007533007534EC7535C2753691
:1004B600007537001202507534FF75350F7536001A
:1004C6007537001202DD7534A475356A7536007508
:1004D60037001201BC753464753500753600753702
:1004E6000012025020012D7534097535007536004D
:1004F600753700120250753405753500753600756E
:1005060037001202DD7534007535E275360475372D
:100516000012019B1200D61203BCC000A83A1203B7
:10052600A6D000C000A8391203A6D000C000A83883
:100536001203A6D000740D120427740A1204277A37
:10054600FA1203A07AFA1203A07AFA1203A07AFA30
:080556001203A0B29702047227
:00000001FF
